:020000040800F2
:100000006006002001010008D71A0008A71900089F
:10001000D51A0008C10700085F1C00080000000096
:10002000000000000000000000000000DB1A0008D3
:10003000FB07000800000000D91A0008DD1A0008BC
:100040001B0100081B0100081B0100081B01000820
:100050001B0100081B0100081B0100081B01000810
:100060001B0100081B0100081B010008C507000850
:100070001B0100081B0100081B0100081B010008F0
:100080001B0100081B010008850600081B01000871
:100090001B0100081B0100081B0100081B010008D0
:1000A0001B0100081B0100081B0100081B010008C0
:1000B0001B0100081B0100081B0100081B010008B0
:1000C0001B0100081B0100081B0100081B010008A0
:1000D0001B0100081B0100081B0100081B01000890
:1000E0001B0100081B0100081B010008DFF80CD0F1
:1000F00000F08AFA00480047FD1D00086006002055
:100100000648804706480047FEE7FEE7FEE7FEE7B1
:10011000FEE7FEE7FEE7FEE7FEE7FEE7411B00081D
:10012000ED000008202A04DB203A21FA02F0002129
:10013000704721FA02F3D040C2F1200291400843F7
:10014000194670470649074A0868504343F2390286
:10015000104408604008704701490860704700007B
:10016000500100206D4EC64140EA01039B0703D0B9
:1001700009E008C9121F08C0042AFAD203E011F8E6
:10018000013B00F8013B521EF9D27047D2B201E0A8
:1001900000F8012B491EFBD270470022F6E710B58C
:1001A00013460A4604461946FFF7F0FF204610BDE5
:1001B0002DE9FE4F804681EA0300C00F0C460090F7
:1001C00021F0004123F00045B8EB0200A94105D21F
:1001D0004046214690461C460B46024623F000400E
:1001E000104347D0270DC7F30A00C3F30A5102900A
:1001F000401A019040286BDAC3F3130040F4801BCF
:100200000098924620B10023D2EB030A63EB0B0B5C
:1002100001985946C0F14002504600F077F9064671
:100220000D4650465946019A00F07FF910EB080040
:100230006141002487EA115284EAE7731A4340D0EF
:10024000009A62B3019A012A4FEA075215DC001B9B
:1002500061EB02014FF0004202EA0752CDE9004291
:10026000001C41F5801132462B4600F07FF903B0A7
:10027000BDE8F08F40462146F9E7001B61EB020123
:10028000001C41F5801300185B412018A2F50017EF
:1002900047EB030140EAD570B6196D4111E06D08D6
:1002A0004FEA360645EAC0754FEA0752001B61EB7C
:1002B0000201001C41F5801149084FEA3000001985
:1002C000514132462B4603B0BDE8F04F00F03FB934
:1002D0000098012240000023D0EB020263EBE073A0
:1002E000009821464FEAE074B8EB000061EB04018E
:1002F000E9E783F000435BE781F0004158E72DE92F
:10030000FE4F81EA030404F0004421F00041009410
:100310004FF0000B23F0004350EA01045ED052EA94
:1003200003045BD0C3F30A54C1F30A552C44A4F26E
:10033000F3340194A0FB0254C1F3130141F4801182
:10034000C3F3130343F4801301FB024400FB034E89
:10035000840A970A44EA815447EA8357A4FB076852
:1003600002958D0A05FB07854FEA932C04FB0C547C
:100370002705029D4FEA065847EA1637B5EB0805F0
:100380006EEB070C870E920E47EA811742EA831242
:10039000A7FB0201B6EB0B0164EB00042B0D43EA53
:1003A0000C335E1844EB1C50DA465146E7FB020161
:1003B000C5F313044FEA0B3343EA14534FEA0432F4
:1003C000019C43EA0603A4F10C040294009CCDE9CD
:1003D00000B400F0CBF803B0BDE8F08F0020014678
:1003E000F9E72DE9F04D81EA030404F0004B21F018
:1003F000004514464FF0000A23F0004150EA050280
:1004000020D054EA01021DD0C5F30A570246C5F3B5
:100410001303C1F31300C1F30A5640F4801543F4EB
:100420008013A7EB0608101BD64608F2FD3873EBC5
:10043000050002D308F1010801E092185B41B8F110
:10044000000F03DA00200146BDE8F08D00204FF4D4
:100450008011064684460EE0171B73EB050705D393
:10046000121B63EB050306434CEA010C49084FEAF3
:10047000300092185B4150EA0107EDD152EA0300C7
:1004800012D082EA040083EA0501084305D0101B5C
:10049000AB4106D20122002306E000224FF00043C8
:1004A00002E06FF0010253101AEB06004CEB08510A
:1004B00010EB0A0041EB0B01BDE8F04D00F047B82E
:1004C0000EB540F2334102910021CDE900110A46F8
:1004D0000B4600F04BF803B000BDC1F30A5210B553
:1004E000C1F3130140F2FF3341F480119A4201DA63
:1004F000002010BD40F233439A42A2F2334203DCA3
:100500005242FFF70FFE10BD904010BD202A04DBC1
:10051000203A00FA02F1002070479140C2F1200316
:1005200020FA03F3194390407047202A06DBCB17CB
:10053000203A41FA02F043EAE07306E041FA02F39E
:10054000D040C2F12002914008431946704710B5CF
:10055000141E73F1000408DA401C41F100019218E6
:100560005B411A4301D120F0010010BD2DE9F04D8F
:1005700092469B4611B1B1FA81F202E0B0FA80F2E4
:1005800020329046FFF7C2FF04460F4640EA0A00B9
:1005900041EA0B0153465A46084313D0114653EA29
:1005A000010019D0C8F140025046FFF7BBFD0546D7
:1005B0000E46504659464246FFF7A8FF084305D06D
:1005C000012004E020463946BDE8F08D00200543B7
:1005D00046EAE0762C4337430A986305E40AA0EB29
:1005E00008000022FD0A44EA47540A3002D50020E0
:1005F0000146E9E7010510196941DDE908450019DF
:100600006941BDE8F04DA2E7064C074D06E0E06801
:1006100040F0010394E8070098471034AC42F6D349
:10062000FFF768FDD8210008F821000870B58C1884
:1006300010F8015B15F0070301D110F8013B2A11F6
:1006400006D110F8012B03E010F8016B01F8016BE3
:100650005B1EF9D12B0705D40023521E0DD401F8DF
:10066000013BFAE710F8013BCB1A921C03E013F8A8
:10067000015B01F8015B521EF9D5A142D8D30020DD
:1006800070BD0000014800F057B90000540100207F
:1006900070B5044600688168C943C9071CD18168E8
:1006A00021F00101816000F03FFD05460FE000BF31
:1006B00000F03AFD401B022809D9A06A40F0100062
:1006C000A062E06A40F00100E062012070BD206895
:1006D0008068C043C007EBD0002070BD10B5014654
:1006E000406A826A12F0500F05D0006A026BBDE8C2
:1006F000104008461047816A41F400718162016828
:100700008968C1F3424107290CD1017B51B9816A43
:1007100021F480718162816AC90403D4816A41F045
:100720000101816200F0EAF810BD10B5406A816AEB
:1007300041F040018162C16A41F00401C16200F0F0
:10074000FAF810BD10B5406A00F0F4F810BD0000D2
:10075000F8B500260446009600688168C943C907B9
:1007600028D0816841F00101816013481349006875
:10077000B0FBF1F000E0401E00900028FBD100F03B
:10078000D3FC054611E000BF00F0CEFC401B022860
:100790000BD9A06A40F01000A062E06A40F00100AE
:1007A000E06284F824600120F8BD20688068C043BE
:1007B000C007E9D10020F8BD4C01002040420F00E5
:1007C000FEE70000014800F091BA00001C02002082
:1007D00030B590F840500124AC40C56B6C600468A3
:1007E00063604368102B036803D099600068C2609F
:1007F00030BD9A600068C16030BD70477047704777
:10080000F8B50024009490F824202546012A12D03F
:10081000012280F824204A681F23072A0DD2066887
:10082000776B521E02EB820293409F430B6893400A
:100830001F43776319E00220F8BD06680D2A0AD22B
:10084000376BD21F02EB820293409F430B689340A9
:100850001F43376309E0F76A0D3A02EB82029340C7
:100860009F430B6893401F43F7620A68072306689B
:100870000A2A0AD3F7680A3A02EB420293409F43DE
:100880008B6893401F43F76008E0376902EB420230
:1008900093409F438B6893401F4337610A68102A37
:1008A00001D0112A20D1124B02689A4217D19368C5
:1008B0001B0219D4936843F400039360096810295C
:1008C00012D10C490C4A0968B1FBF2F101EB81012C
:1008D000490000E0491E00910029FBD104E0816A33
:1008E00041F020018162012480F824502046F8BDA7
:1008F000002401404C01002040420F0030B5006848
:10090000094988420FD1094A094C0020D2F8041045
:10091000A4F1100334F8105023F81050401C491C67
:100920000828F7DB516030BD0024014000000020A2
:10093000D40100207047704710B504460068416834
:10094000890626D50168890723D5A16AC90603D47B
:10095000A16A41F40071A1628168C1F34241072993
:1009600010D1217B71B9416821F020014160A06A5A
:1009700020F48070A062A06AC00403D4A06A40F092
:100980000100A0622046FFF7B9FF21686FF0120056
:1009900008602068416809062ED5016849072BD5F3
:1009A000A16AC90603D4A16A41F40051A162816819
:1009B000C1F30231072909D04168490515D481687E
:1009C000C1F34241072910D1217B71B9416821F05F
:1009D00080014160A06A20F48050A062A06AC00536
:1009E00003D4A06A40F00100A0622046FFF707FF91
:1009F00021686FF00C0008602068416849060DD539
:100A00000068C0070AD0A06A40F48030A062204687
:100A100000F094F821686FF00100086010BD00003C
:100A20002DE9F0414FF0000704003D467ED0A06A5A
:100A3000002628B9E66284F82460204600F080F899
:100A40002046FFF725FEA16AC90600D420B1A06A9E
:100A500040F01000A06269E0A16A21F4885141F0E1
:100A60000201A1626268E169237B0A4347EA43010C
:100A70000A43A1684FF48077B94209D0012907D011
:100A80005FF0000194F814C0BCF1010F02D00AE03D
:100A90003946F7E7F3B1A36A43F02003A362E36AA0
:100AA00043F00103E3622368D3F804C02CF4694CDB
:100AB0004CEA010CC3F804C021688B68DFF870C0F1
:100AC00003EA0C0313438B60A168B9420BD00129E0
:100AD00009D00CE0DFF85CC0A3690CEB43330B4397
:100AE00043F40061DFE7218A0D05A5F58015216833
:100AF000CB6A23F470032B43CB62216889680E4BC9
:100B00001940914208D1E662A16A21F0020141F048
:100B10000101A162BDE8F081A06A20F0020040F06E
:100B20001000A062E06A40F00100E0620120F1E7FD
:100B3000FDF7E1FF00E0FFFFFE0E1FFF7047000022
:100B400070B586B00025064600950195029503957F
:100B500000681E49884236D11D49886940F40070FA
:100B60008861886900F400700490886940F004008E
:100B700088618869694600F00400049001200090B3
:100B800003200190134800F0D3F9144C1248C4E933
:100B900000058020C4E902508000206140006061AF
:100BA0002020C4E90605204600F04AF908B1FFF705
:100BB00025FE3462002211461220666200F020FBFE
:100BC000122000F00FFB06B070BD000000240140B1
:100BD0000010024000080140080002401C020020F2
:100BE0002DE9F047894604463B4900683B4F0E1DFE
:100BF0009046884201D0B84207D1306810F4702F77
:100C000003D001252846BDE8F08794F82400012888
:100C10000CD0012084F824002046FFF799FD050040
:100C20004FF0000004D084F82400EBE70220EAE74C
:100C3000A16A40F60162914341F48071A16221688A
:100C4000B94218D1326812F4702F14D0A16A41F45D
:100C50008011A1623168490505D5A16A21F40051CE
:100C600041F48051A162A16AC9040AD5E16A21F068
:100C70000601E16206E0A26A22F48012A2624968DB
:100C8000E9E7E06284F82400216A15488862216A55
:100C90001448C862216A1448086321686FF0020092
:100CA00008602068816841F4807181602168434652
:100CB0004A464C31206A00F0F1F820688168C1F39F
:100CC00042410729816803D041F48011816099E78E
:100CD00041F4A001FAE7000000240140002801408F
:100CE000DD060008450700082B0700082DE9F05F26
:100CF000C16B0C6801680B68D0F840C0042202FA8E
:100D00000CF2494DDFF824A1494E4A4FDFF828B1D3
:100D1000DFF828E122422CD05A072AD50A68920629
:100D200003D40A6822F004020A600168A94201D1D2
:100D3000042219E0514501D1402215E0B14202D10F
:100D40004FF4806210E0B94202D14FF480420BE0D0
:100D5000594502D14FF4802206E0714502D14FF48B
:100D6000800201E04FF080622F4908394A60C16A71
:100D70003BE04FF0020808FA0CF818EA040F4FF0B5
:100D800000094FF0010235D05FEA837832D50B6855
:100D90009B0605D40B6823F00A030B6080F8212022
:100DA0000168A94201D1022219E0514501D1202256
:100DB00015E0B14202D14FF4007210E0B94202D105
:100DC0004FF400520BE0594502D14FF4003206E0D7
:100DD000714502D14FF4001201E04FF00072124948
:100DE00008394A6080F82090816A00291AD0BDE84D
:100DF000F05F0847082505FA0CF5254212D01B07BD
:100E000010D50B6823F00E030B6090F84010C36BF5
:100E100002FA01F15960826380F8212080F8209065
:100E2000016BE2E7BDE8F09F080002401C000240B1
:100E30003000024044000240580002406C00024072
:100E400030B528B308C8134914221944B1FBF2F194
:100E50008900C16310498163022141771A6843F612
:100E6000F0718A43D0E900142143D0E902452C43B4
:100E70002143046921434469214384692143114387
:100E8000196000214163012242770177084630BD95
:100E9000012030BDF8FFFDBF0000024070B50446E0
:100EA00090F82000002501280CD0012084F82000B3
:100EB00094F821600020012E06D084F8200002253D
:100EC000284670BD022070BD022684F82160A06310
:100ED0002068066826F0010606602046FFF778FCC9
:100EE000E06A00282068016802D041F00E0106E0A7
:100EF00021F0040101602068016841F00A010160ED
:100F00002068016841F001010160D9E770B504462D
:100F100000F00AF90546601C02D004480078044439
:100F200000F002F9401BA042FAD370BD400100203E
:100F30002DE9F84FDFF8B891002409F1040A0AF10D
:100F4000040B23460F270BF1040EC9E00125A54031
:100F50002A40AA427DD1674ED1F804C0ACEB060806
:100F6000B44532D014DCBCF1030F3AD009DCBCF13B
:100F7000000F2AD0BCF1010F1CD0BCF1020F31D1FF
:100F80001DE0BCF1110F17D0BCF1120F2AD119E0EE
:100F9000B8F5881F19D006DCB8F5803F15D0B8F534
:100FA000801F1FD111E0B8F5001F0ED0B8F5041F47
:100FB00018D10AE0CB6815E0CB681B1D12E0CB68A6
:100FC00008330FE0CB680C330CE08B682BB1012B9E
:100FD0004FF0080303D0456104E0042302E00561FB
:100FE00000E00023FF2A01D8064601E000F10406D4
:100FF0004FEA840501D9A5F12005D6F8008007FA4B
:1010000005FC28EA0C0803FA05F548EA0508C6F8C5
:1010100000804D68ED0062D5374DAE6946F001069F
:10102000AE61AD6924F0030605F001050095334D6E
:1010300006EB050CDCF80850A607360F07FA06F891
:1010400025EA0805DFF8B880404503D14FF00008D5
:1010500017E044E0DFF8AC80404502D14FF00108D2
:101060000FE0DFF8A480404502D14FF0020808E00D
:10107000DFF89880404502D14FF0030801E04FF0BF
:10108000040808FA06F848EA0508CCF808804D6814
:10109000D9F80060ED034D4601D5164300E09643B4
:1010A0002E604D68DAF80060AD03554601D5164351
:1010B00000E096432E604D68DBF80060ED025D466F
:1010C00001D5164300E096432E604D68DEF80060BF
:1010D000AD02754601D5164300E096432E60641CB0
:1010E0000D682A46E5407FF431AFBDE8F88F000077
:1010F00000040140000011100010024000000140F7
:1011000000080140000C01400010014000140140A3
:10111000C2680A4201D041617047016170470AB15B
:10112000016170470904FBE70148806870470000CF
:1011300040010020024881680278114481607047B4
:1011400040010020074810B5016841F0100101601E
:10115000032000F075F8002000F006F800F024F8F5
:10116000002010BD0020024070B50D4D04464FF424
:101170007A712878B1FBF0F00A490968B1FBF0F008
:1011800000F042FB48B9102C07D200222146501E25
:1011900000F036F800206C6070BD012070BD0000CA
:1011A000400100204C0100200C4808B5816941F045
:1011B00001018161816901F001010091C16941F082
:1011C0008051C161C06900F08050009004484168BE
:1011D00021F0E06141F00071416008BD0010024063
:1011E00000000140002809DB00F01F0201219140AE
:1011F0004009800000F1E020C0F8001170470000B5
:10120000F0B40E4B1B680C46C3F30223C3F1070571
:10121000042D00D90425191D072901D2002300E05F
:10122000DB1E012606FA05F1491E214099409E4029
:10123000761E16403143F0BC00F012BD0CED00E00C
:10124000064900F0070208684FF6FF03184040EA1D
:101250000220034A10430860704700000CED00E0D4
:101260000000FA052DE9F84305460078354CC00723
:1012700054D0E0690026C00008D4E06940F08050F6
:10128000E061E069012600F0805000902E4801687E
:10129000C90512D40168804641F480710160FFF7EE
:1012A00043FF074605E000BFFFF73EFFC01B642871
:1012B00023D8D8F80000C005F6D5206A10F4407095
:1012C00021D0A98801F4407181421CD0206A1F49B5
:1012D000012220F440700A6000220A602062C007E8
:1012E00011D0FFF721FF074641F2883808E000BF20
:1012F000FFF71AFFC11B414502D90320BDE8F8835F
:10130000206A8007F4D5206A696820F44070084399
:1013100020621EB1E06920F08050E06128788007EB
:1013200005D56068A96820F44040084360602878CB
:10133000C00605D56068E96820F480000843606055
:101340000020DBE7001002400070004040044242F1
:101350002DE9F0470F46050061D0434E306800F09C
:101360000700B84209D2306820F0070038433060E7
:10137000306800F00700B84251D128683B4C810723
:1013800012D5400703D5606840F4E06060602878BB
:10139000000703D5606840F4605060606068A96829
:1013A00020F0F000084360602878C00728D0686803
:1013B000012810D02168022810D0890700292EDAD0
:1013C000616821F0030101436160FFF7ADFE8046D3
:1013D00041F288390DE021688903EFE78901EDE7E3
:1013E000FFF7A2FEA0EB0801494502D90320BDE8A2
:1013F000F0876068696800F00C00B0EB810FEFD1F6
:10140000306800F00700B8420BD9306820F00700C0
:1014100038433060306800F00700B84201D0012046
:10142000E5E72878400705D56068E96820F4E060C2
:10143000084360602878000706D56068296920F4B1
:10144000605040EAC100606000F018F86168084A26
:10145000C1F30311515CC8400649086006480068A2
:10146000FFF782FE0020C2E7002002400010024089
:10147000C82100084C0100204401002012A185B0C1
:101480000FC98DE80F0014A0144A00680490516839
:10149000134801F00C03042B10D0082B0ED1C1F31C
:1014A0008343C9031DF803000AD5516804AAC1F398
:1014B0004041515C0A4A5043B0FBF1F005B070471F
:1014C00008494843FAE70000020304050607080933
:1014D0000A0B0C0D0E0F101001020000001002404C
:1014E00000127A0000093D002DE9F84F040070D089
:1014F0002078C04DC00749D06868C0F3810001283A
:1015000007D06868C0F38100022809D16868C00369
:1015100006D52868800339D560680028E7D035E013
:101520006068B0F5803F0BD010B1B0F5A02F11D09E
:10153000286820F480302860286820F4802002E0A9
:10154000286840F480302860606890B1FFF7ECFDB7
:1015500006460AE0286840F480202860F0E700BFD3
:10156000FFF7E2FD801B642873D828688003F7D555
:101570000CE0FFF7D9FD064605E000BFFFF7D4FDFC
:10158000801B6428F0D828688003F7D420789A4E0E
:1015900080074FF001094FF0000839D5686810F056
:1015A0000C0F07D06868C0F38100022809D1686871
:1015B000C00306D42868800714D52069012808D103
:1015C00010E02069B0B1C6F80090FFF7ADFD074606
:1015D00005E00AE1FFF7A8FDC01B0228C4D828686F
:1015E0008007F7D52868616920F0F80040EAC1005B
:1015F00028600DE0C6F80080FFF796FD074604E07E
:10160000FFF792FDC01B022823D828688007F7D473
:10161000207800072CD57948A169D9B1C0F800908D
:10162000FFF782FD074604E0FFF77EFDC01B02289E
:101630000FD8686A8007F7D571484FF4FA510068EF
:10164000B0FBF1F0009000BF0098411E0091FAD26B
:101650000EE080E0C0F80080FFF766FD074604E07A
:10166000FFF762FDC01B022875D8686A8007F7D4AF
:101670002078400760D5E8690027C00008D4E869F1
:1016800040F08050E861E869012700F08050009048
:101690005C480168C90513D40168834641F4807130
:1016A0000160FFF741FD824606E000BFFFF73CFD09
:1016B000A0EB0A0064284ED8DBF80000C005F5D581
:1016C000E06801280AD008B1052813D0286A20F064
:1016D00001002862286A20F0040002E0286A40F035
:1016E00001002862E06841F2883B98B1FFF71CFDD9
:1016F00082460BE0286A40F004002862EEE700BF53
:10170000FFF712FDA0EB0A0159455AD8286A800755
:10171000F6D50CE0FFF708FD824605E0FFF704FD73
:10172000A0EB0A0159454CD8286A8007F6D41FB1AE
:10173000E86920F08050E861E06988B36968C1F326
:101740008101022944D00228C6F8608004D0FFF746
:10175000EBFC044638E034E0FFF7E6FC074604E023
:10176000FFF7E2FCC01B02282BD828688001F7D4C1
:10177000206AB0F5803F05D16868A16820F4003088
:1017800008436860D4E908010843696821F47411CA
:1017900008436860C6F86090FFF7C6FC044606E0A0
:1017A00025E000BFFFF7C0FC001B022809D828680D
:1017B0008001F7D51BE000BFFFF7B6FC001B022835
:1017C00002D90320BDE8F88F28688001F4D40EE028
:1017D0000128F7D06868226A00F48031914204D170
:1017E000616A00F47010884201D00120EAE700200D
:1017F000E8E700000010024000004242800442423C
:101800004C0100200070004010B5401EB0F1807FF8
:1018100001D3012010BD4FF0E02460610F2160175B
:1018200000F01EFA0020A06107202061002010BDFA
:1018300070B590F83C20012A19D0012400F83C4FE3
:101840000222427050F83C3C5A689D6822F07006B3
:101850000A684968324325F0800529435A6050F8E8
:101860003C2C9160447000210170084670BD02203C
:1018700070BD10B5040003D094F83D0010B107E02E
:10188000012010BD002084F83C00204600F00CF838
:10189000022084F83D00211D206800F075F9012028
:1018A00084F83D00002010BD08B500680649884254
:1018B00008D10648816941F400618161806900F4C2
:1018C0000060009008BD0000002C014000100240A4
:1018D00070B5044690F83C00012817D0012584F823
:1018E0003C50022084F83D002068826822F0770294
:1018F00022F47F4282600868502830D00DDC202816
:101900004DD005DC98B310283BD148E0022070BDD3
:10191000302844D0402834D139E0602828D07028BD
:1019200006D0B0F5805F2CD0B0F5005F29D10AE079
:10193000CB68D1E90121206800F05CF9206881685A
:1019400041F0770109E0CB68D1E90121206800F07E
:1019500051F92068816841F48041816011E0CA68D2
:101960004968206800F058F95021206807E016E027
:10197000CA684968206800F060F96021206800F0BA
:1019800043F984F83D50002084F83C0070BDCA68DB
:101990004968206800F040F940212068EFE722689C
:1019A00001461046EBE7FEE73EB500240D480094E3
:1019B000019402940A49846001600125057304754D
:1019C00005614FF460214460C161FFF729F80420EC
:1019D0000094CDE9015069460248FEF711FF3EBD73
:1019E00000240140540100202DE9F04186B000247C
:1019F00020480094019402940394816941F01001FD
:101A00008161816901F010010491816941F0200137
:101A10008161816901F020010491816941F0040133
:101A200081618069144F00F004004FF40055049068
:101A3000002229463846FFF772FBDFF8408000227B
:101A4000E0214046FFF76BFB009502260125039637
:101A5000CDE9015469463846FFF76AFAE020CDE93E
:101A60000005CDE9024669464046FFF761FA06B037
:101A7000BDE8F08100100240001001400008014064
:101A800010B586B000241248009401940294039487
:101A900004940E490594C0E900144FF6FE71C0E9A4
:101AA0000241046144618461FFF7E3FE4FF480501A
:101AB000009069460648FFF70BFF049404A9044808
:101AC0000594FFF7B5FE06B010BD0000002C0140E4
:101AD00084010020FEE7704770477047FFF72ABB7C
:101AE00030B593B028216846FEF757FB14210AA8A9
:101AF000FEF753FB002401200F941094119401046D
:101B000012948DE8130004904FF4E010CDE9081012
:101B1000022507956846FFF7E7FC0F20CDE90A0587
:101B20006802CDE90C4002210AA80E94FFF710FCD0
:101B3000A80311900F950FA8FFF794FB13B030BDC9
:101B40000D48016841F00101016041680B4A1140F4
:101B5000416001680A4A11400160016821F4802156
:101B60000160416821F4FE0141604FF41F01816072
:101B70000449C00308607047001002400000FFF8ED
:101B8000FFFFF6FE08ED00E0F0B50268164B174CBB
:101B9000174D4FF08047984205D0B84203D0A0427D
:101BA00001D0A84203D122F070064A68324398421D
:101BB00005D0B84203D0A04201D0A84203D122F4FC
:101BC0004074CA6822434C6922F0800222430260BA
:101BD0008A68C2620A688262984201D10969016317
:101BE00001214161F0BD0000002C014000040040D3
:101BF0000008004010B5846842EA032224F47F44C0
:101C00000A432243826010BD826822F070020A43B8
:101C100042F007018160704710B5036A046A24F03E
:101C200001040462846924F0F00444EA021423F0FD
:101C30000A020A438461026210BD10B5036A23F0F0
:101C4000100303628369046A23F4704343EA023297
:101C500024F0A00343EA01118261016210BDFEE796
:101C60000907090E002804DB00F1E02080F80014C9
:101C7000704700F00F0000F1E02080F8141D70475D
:101C800002E008C8121F08C1002AFAD17047704745
:101C9000002001E001C1121F002AFBD170470000A3
:101CA000F0B50022064B01251446865C8F5CBE42CF
:101CB00001D99D5400E09C54521C092AF5DBF0BD6B
:101CC0001102002010B5044600F000FA431EC4F1D2
:101CD000080000F0FBF9584310BD000070B5054E38
:101CE00005460024285DFFF7EDFF3055641C092CE4
:101CF000F8DB70BD080000202DE9F047074691464B
:101D00000C460D48FFF7EAFF0C480126082500EBBA
:101D10000708641E0CE04846FFF7F8F818F8010CB5
:101D20003044C1B2F8B200F0F7F97006060E6D1E2D
:101D3000A542F0DCBDE8F087080200200800002082
:101D40002DE9F34F824691B02948FFF7C7FF4FF0C6
:101D500001091C22274906A8FEF706FA4FF00008E1
:101D6000464655466C463DE0002001462154401C45
:101D70000928FBDBDFF878B01F4F00230BF1090BBC
:101D8000F85CE0541BF80310012910D118490939F7
:101D9000CA5CAAF108011144A94201DA484405E0ED
:101DA000C2F1080000F092F9F95C0844E0545B1CB1
:101DB000092BE5DB0027781CE15DC0B200F0ACF92F
:101DC0007F1C092FF7DB4FEA49604FEA1069129830
:101DD000A0EB0800FFF79AF806A86D1E50F8261031
:101DE000761C8844002DBFDC13B0BDE8F08F0000E6
:101DF00008020020AC210008080000208CB0FFF78A
:101E0000A1F9FFF76DFEFFF7EFFD8C48416941F046
:101E1000010141614069002200F00100009011467B
:101E20000B20FFF7EDF90B20FFF7DCF9FFF7BCFD06
:101E3000FFF726FE82490822A1F18000FEF7D0FEBE
:101E400000F02DF900207E49054622310D54401C3A
:101E50000928FBDB7BA000F087F90024601CC0B2DE
:101E6000002100F059F9641C092CF7DB4FF4FA74D7
:101E70002046FFF74BF875A000F076F92046FFF7F3
:101E800045F875A000F070F92046FFF73FF8DFF83D
:101E9000B081DFF8CCA10DF11C0B08F110086848E7
:101EA0002230FFF71BFF00F04FF9002002464146A9
:101EB00021F81020401C0928FADB002680E0604A47
:101EC0000020103A4FEA0B0132F8103021F81030A0
:101ED000401C0828F8DB00273C464FF0640900BF8F
:101EE0003BF8140069680844FEF736F9FEF72AF952
:101EF00081B2C820B1FBF0F200FB1211B1FBF9F086
:101F00003844641CC7B2082CEADB5649686888422A
:101F100005D9FEF717F9544990FBF1F0686096FB7C
:101F2000F9F238F81700401C28F8170009FB126076
:101F3000F0BB00242888FEF7C3FADFF804910D46B1
:101F400009F12B09CDF8000038F81400009FFEF7C6
:101F5000B7FA0022454BFEF7D2F90022444BFEF7B8
:101F600040FA3A462B46FEF73CFA0022414BFEF778
:101F70001FF9FEF7B2FAC0B24F4609F8040008286C
:101F800001D908203855641C092CDDDB2C4934317B
:101F9000A1F10900FFF784FE29493431A1F10900BC
:101FA00000F06CF81A21FFF7CBFE0020244900E076
:101FB00005E034313A5C0A54401C0928FADB761CEF
:101FC000BAF8000055468642FFF679AF0024BAF809
:101FD0000000FEF775FA1A4FDFF890900E4605469E
:101FE00017F12B0738F81400FEF76AFA00224B4667
:101FF000FEF785F900221E4BFEF7F3F92A46334619
:10200000FEF7EFF900221B4BFEF7D2F8FEF765FA58
:102010003855641C092CE5DB09482B30FFF75EFEC0
:1020200000F092F84FF4C87200210120FFF764FE1F
:102030004FF400511048FFF76BF830E700100240F2
:10204000D4010020484150515900000042495254E7
:102050004844415900000000534953544552000080
:102060000000002080841E0040420F0000C090400D
:10207000008041400000E03F0010014030B50823DF
:102080000022845C8D5CAC4202D99C4200D2234683
:10209000521C092AF5DBC3F10900C0B230BD10B5EE
:1020A0000021092000F038F803210A2000F034F85C
:1020B00007210B2000F030F801210C2000F02CF853
:1020C0000021BDE810400F2000F026B80246012094
:1020D000002101E04000491C9142FBDB70470000F9
:1020E00070B50C4E05460024002220213046FFF733
:1020F00016F805F0800280213046FFF710F86806D8
:10210000050E012220213046FFF709F8641C082C37
:10211000EADB70BD0008014070B50A4C0E4605466A
:10212000002240212046FEF7FAFF2846FFF7D8FF9D
:102130003046FFF7D5FF2046BDE870400122402120
:10214000FEF7EDBF0008014070B5064D01242819C7
:1021500010F8011CE0B2FFF7DFFF641C092CF6DB6E
:1021600070BD0000080000202DE9F04105460E4E2C
:102170004FF4FA7712E00124287806EBC0002044DF
:10218000A0F5805090F8471EE0B2FFF7C5FF641C31
:10219000092CF1DB38466D1CFEF7B8FE28780028C4
:1021A000E9D1BDE8F081000010000020010000002E
:1021B000010000000300000000000000010000001A
:1021C000010000000000000000000000000000000E
:1021D0000102030406070809F82100080000002096
:1021E000540100002C060008E422000854010020DD
:1021F0000C050000901C000811E20A3B3C42011E45
:102200003C1030501001280D7C7E02027E40404080
:102210007E3E02020311101008182848FE08080824
:102220003C20203C04043C29081424243C1C3E226D
:1022300004161B0808092A220329042A023137FC44
:1022400022212122FC16FE9191916E1A3C4D19011A
:10225000123C3781FF8181423C1AFF1812911C7C8D
:1022600040400319191904154C44443C2AFF4E32CE
:10227000FF2A812A113A3C5E13483048082428304E
:1022800020302824471808407C81C3A5998101117A
:102290007F4262524A4642C01146FF1111110E5947
:1022A0000919074319E61A8E6F3261160101FF0101
:1022B00001492F4B221C081324181A4901132A1C08
:1022C00018084122140814224127170204F80402B6
:1022D000010008107F02040810207F320182105391
:0422E00024F40000E2
:04000005080000ED02
:00000001FF
